{
  "contractName": "Certifier",
  "abi": [
    {
      "constant": true,
      "inputs": [],
      "name": "owner",
      "outputs": [
        {
          "name": "",
          "type": "address"
        }
      ],
      "payable": false,
      "stateMutability": "view",
      "type": "function"
    },
    {
      "inputs": [],
      "payable": false,
      "stateMutability": "nonpayable",
      "type": "constructor"
    },
    {
      "constant": false,
      "inputs": [
        {
          "name": "_courseId",
          "type": "uint256"
        },
        {
          "name": "_courseName",
          "type": "string"
        },
        {
          "name": "_startingDate",
          "type": "uint256"
        },
        {
          "name": "_endingDate",
          "type": "uint256"
        },
        {
          "name": "_courseCost",
          "type": "uint256"
        },
        {
          "name": "_intensity",
          "type": "uint256"
        },
        {
          "name": "_threshold",
          "type": "uint256"
        },
        {
          "name": "_minimumStudent",
          "type": "uint256"
        }
      ],
      "name": "addCourse",
      "outputs": [],
      "payable": false,
      "stateMutability": "nonpayable",
      "type": "function"
    },
    {
      "constant": true,
      "inputs": [
        {
          "name": "_courseId",
          "type": "uint256"
        }
      ],
      "name": "getCourseByID",
      "outputs": [
        {
          "name": "",
          "type": "string"
        },
        {
          "name": "",
          "type": "uint256"
        },
        {
          "name": "",
          "type": "uint256"
        },
        {
          "name": "",
          "type": "uint256"
        },
        {
          "name": "",
          "type": "uint256"
        },
        {
          "name": "",
          "type": "uint256"
        },
        {
          "name": "",
          "type": "uint256"
        }
      ],
      "payable": false,
      "stateMutability": "view",
      "type": "function"
    }
  ],
  "bytecode": "0x608060405234801561001057600080fd5b50336000806101000a81548173ffffffffffffffffffffffffffffffffffffffff021916908373ffffffffffffffffffffffffffffffffffffffff160217905550610697806100606000396000f3fe608060405260043610610057576000357c0100000000000000000000000000000000000000000000000000000000900463ffffffff1680630bb762091461005c578063677a84781461016b5780638da5cb5b14610249575b600080fd5b34801561006857600080fd5b50610169600480360361010081101561008057600080fd5b8101908080359060200190929190803590602001906401000000008111156100a757600080fd5b8201836020820111156100b957600080fd5b803590602001918460018302840111640100000000831117156100db57600080fd5b91908080601f016020809104026020016040519081016040528093929190818152602001838380828437600081840152601f19601f8201169050808301925050505050505091929192908035906020019092919080359060200190929190803590602001909291908035906020019092919080359060200190929190803590602001909291905050506102a0565b005b34801561017757600080fd5b506101a46004803603602081101561018e57600080fd5b8101908080359060200190929190505050610411565b6040518080602001888152602001878152602001868152602001858152602001848152602001838152602001828103825289818151815260200191508051906020019080838360005b838110156102085780820151818401526020810190506101ed565b50505050905090810190601f1680156102355780820380516001836020036101000a031916815260200191505b509850505050505050505060405180910390f35b34801561025557600080fd5b5061025e610563565b604051808273ffffffffffffffffffffffffffffffffffffffff1673ffffffffffffffffffffffffffffffffffffffff16815260200191505060405180910390f35b6000809054906101000a900473ffffffffffffffffffffffffffffffffffffffff1673ffffffffffffffffffffffffffffffffffffffff163373ffffffffffffffffffffffffffffffffffffffff16141515610364576040517f08c379a00000000000000000000000000000000000000000000000000000000081526004018080602001828103825260188152602001807f5573746564206e6f2065737461206175746f72697a61646f000000000000000081525060200191505060405180910390fd5b60e06040519081016040528088815260200187815260200186815260200185815260200184815260200183815260200182815250600160008a815260200190815260200160002060008201518160000190805190602001906103c7929190610588565b506020820151816001015560408201518160020155606082015181600301556080820151816004015560a0820151816005015560c082015181600601559050505050505050505050565b6060600080600080600080610424610608565b600160008a815260200190815260200160002060e06040519081016040529081600082018054600181600116156101000203166002900480601f0160208091040260200160405190810160405280929190818152602001828054600181600116156101000203166002900480156104dc5780601f106104b1576101008083540402835291602001916104dc565b820191906000526020600020905b8154815290600101906020018083116104bf57829003601f168201915b5050505050815260200160018201548152602001600282015481526020016003820154815260200160048201548152602001600582015481526020016006820154815250509050806000015181602001518260400151836060015184608001518560a001518660c00151869650975097509750975097509750975050919395979092949650565b6000809054906101000a900473ffffffffffffffffffffffffffffffffffffffff1681565b828054600181600116156101000203166002900490600052602060002090601f016020900481019282601f106105c957805160ff19168380011785556105f7565b828001600101855582156105f7579182015b828111156105f65782518255916020019190600101906105db565b5b5090506106049190610646565b5090565b60e060405190810160405280606081526020016000815260200160008152602001600081526020016000815260200160008152602001600081525090565b61066891905b8082111561066457600081600090555060010161064c565b5090565b9056fea165627a7a72305820e1904bc4db2222542332f3051421ca043e36f5aeeb60c636a1351e13e8ec44270029",
  "source": "pragma solidity >=0.4.23 <0.6.0;\n\ncontract Certifier {\n  address public owner;\n  mapping(uint => Course) courses;\n\n  constructor() public {\n    owner = msg.sender;\n  }\n\n  modifier onlyOwner() {\n    require(msg.sender == owner, \"Usted no esta autorizado\");\n    _;\n  }\n\n  struct Course {\n    string courseName;\n    uint startingDate;\n    uint endingDate;\n    uint courseCost;\n    uint intensity;\n    uint threshold;\n    uint minimumStudent;\n  }\n\n  function addCourse(\n    uint _courseId,\n    string memory _courseName,\n    uint _startingDate,\n    uint _endingDate,\n    uint _courseCost,\n    uint _intensity,\n    uint _threshold,\n    uint _minimumStudent\n  ) public onlyOwner {\n    courses[_courseId] = Course({\n      courseName: _courseName,\n      startingDate: _startingDate,\n      endingDate: _endingDate,\n      courseCost: _courseCost,\n      intensity: _intensity,\n      threshold: _threshold,\n      minimumStudent: _minimumStudent\n    });\n  }\n\n  function getCourseByID(uint _courseId) public view returns(\n    string memory,\n    uint,\n    uint,\n    uint,\n    uint,\n    uint,\n    uint\n  ) {\n    Course memory courseTmp = courses[_courseId];\n    return (\n      courseTmp.courseName,\n      courseTmp.startingDate,\n      courseTmp.endingDate,\n      courseTmp.courseCost,\n      courseTmp.intensity,\n      courseTmp.threshold,\n      courseTmp.minimumStudent\n    );\n  }\n}\n",
  "sourcePath": "/home/mesi/Projects/ViveLab/curso/certifier/contracts/Certifier.sol",
  "compiler": {
    "name": "solc",
    "version": "0.5.0+commit.1d4f565a.Emscripten.clang"
  },
  "schemaVersion": "3.0.2",
  "updatedAt": "2019-02-21T19:02:43.273Z",
  "devdoc": {
    "methods": {}
  },
  "userdoc": {
    "methods": {}
  }
}